:1006610041001200420010000041000E0041000F45
:0506710001410013002F
:100A49007D02E4FF120932D288D2A8E4900012F0A4
:100A5900900010F0A3F090000EF0A304F0E49000D1
:030A690013F02265
:03000300020B36B7
:100B3600C0E0C083C0829000137401F0D082D083DD
:030B4600D0E032CA
:060BAC00900013E0FF229F
:060BB200E4900013F022A4
:10030B00E4FF120B2290000EE0C394145015A3E0EF
:10031B006F600AE490000EF0A3EFF0800690000EE1
:10032B00E004F090000EE0C394144056EF70279059
:10033B000012E0700504F0E48042C3900011E094D9
:10034B00FF900010E094FF5039A3E004F07033905D
:10035B000010E004F022900012E0B40125C39000DD
:10036B0011E094DC900010E09405900013400574AC
:10037B0002F080037401F0E4900012F0900010F092
:03038B00A3F022BA
:060BB800C1C2C3C4C5C6A2
:10093200EFC39406502FEF900BB893FFED14600CA9
:100942001460111460042403701B80118F8275835C
:1009520000E4F0228F827583007481F0228F827509
:0609620083007401F02285
:100A6C00ED14700E7401A807088002C333D8FC4241
:100A7C0080227401A807088002C333D8FCF452808A
:010A8C002247
:100B2200E580A807088002C313D8FC30E0037F01E8
:040B3200227F0022FC
:10067600410015004200160000420018000041002B
:0206860014005E
:100AAE007D017F02120932E4FD7F02120A6CE4908E
:100ABE000015F0A3F0A3F0A3F0A3F0900014F02221
:1009CF00900015EFF0E4A3F0A3F0A3F0A3F0EF1461
:1009DF00601004701AE4FD7F02120A6CE490001498
:1009EF00F0227D017F02120A6C9000147401F02234
:10012800900015E014601A14602E14606A240360AD
:10013800030201DD900014E0640160030201DD8028
:1001480079900014E060030201DD7D017F02120A4C
:100158006C9000147401F022900017E004F070060F
:10016800900016E004F0C3900017E094FA9000168F
:10017800E094004060E4F0A3F0900014E070047F85
:100188000180027F00900014EFF060047D0180027E
:100198007D007F02020A6CD3900019E09400900061
:1001A80018E094004020A3E024FFF0900018E03409
:1001B800FFF0900014E0B4011CE4FD7F02120A6C09
:1001C800E4900014F0227D017F02120A6C90001462
:0601D8007401F0A3F02207
:060BBE00900015E0FF228B
:100B0A009000157403F09000187401F0A374F4F0C7
:080B1A00E4900016F0A3F022A4
:100688004100000041000500420002000041000650
:0906980000410001004100047B57
:100ACE00900004E0FFE4FCFDFE7B6D7A4E79C67863
:0E0ADE004112008BEF2439900004F07F0022BB
:1009FF007D017F03120932E4FD7F03120A6CE4903C
:100A0F000000F0900005F0900002F0A3F0900006B7
:060A1F00F0900001F0223E
:100AEC00EF600E7D017F03120A6C9000057401F01B
:0E0AFC0022E4FD7F03120A6CE4900005F02254
:10000E00EFC3940A4002E4FF900000EFF0E490008A
:10001E0006F0900002F0A3F0900001F0EF7004FFE4
:04002E00120AEC22A4
:060BC400900000E0FF229A
:0D0B7F00900005E0B40105E4FF120AEC222D
:0C0B8C00900005E070057F01120AEC22C9
:10082800900002E07002A3E07031900006E07016BC
:100838007F01120AEC9000027401F0A374F4F090A6
:1008480000067401F022E4FF120AEC900002740121
:10085800F0A374F4F0E4900006F022900003E02482
:0A086800FFF0900002E034FFF022E0
:10087200900002E07002A3E07031900006E0701672
:100882007F01120AEC9000027401F0A374F4F0905C
:1008920000067401F022E4FF120AEC9000027405D3
:1008A200F0A374DCF0E4900006F022900003E02450
:0A08B200FFF0900002E034FFF02296
:10053A00900002E07002A3E0704B900006E01460A5
:10054A000C146007146026240370318010E4FF1233
:10055A000AEC900002E4F0A37464F0801F7F011299
:10056A000AEC900002E4F0A374C8F0800FE4FF12D2
:10057A000AEC9000027401F0A374F4F0900006E013
:10058A00045403F022900003E024FFF0900002E0FC
:04059A0034FFF02218
:10040A00900002E07002A3E0704D900006E01460D4
:10041A001214601114601014600B14601E2405700D
:10042A0029800880028004E4FF80027F01120AEC1E
:10043A00900002E4F0A37464F0800FE4FF120AEC67
:10044A009000027402F0A374BCF0900006E00475F8
:10045A00F00684E5F0F022900003E024FFF090001B
:06046A0002E034FFF02265
:1001DE00900002E07002A3E060030202709000063D
:1001EE00E014602114602E14603B146049146056B4
:1001FE00240570617F01120AEC9000027401F0A3D5
:10020E00742CF08050E4FF120AEC900002E4F0A38C
:10021E0074C8F080407F01120AEC900002E4F0A353
:10022E007464F08030E4FF120AEC9000027401F066
:10023E00A37490F0801F7F01120AEC900002E4F08C
:10024E00A37496F0800FE4FF120AEC900002740281
:10025E00F0A3748AF0900006E00475F00684E5F0D1
:10026E00F022900003E024FFF0900002E034FFF053
:01027E00225D
:10071D00900002E07002A3E07042900001E0C394EB
:10072D0064500DE02402F0E0D3946440037464F04F
:10073D007F01120AEC900002E4F0A37432F09000F5
:10074D0001E0C394644023D3900003E09401900032
:10075D0002E094005014E4900001F022900003E0B8
:0B076D0024FFF0900002E034FFF022B7
:10047000900002E07002A3E0704C900001E0D39481
:1004800000400CE024FEF0E0D394644002E4F090DD
:100490000001E0D3940040047F0180027F00120A33
:1004A000EC900002E4F0A37432F0900001E07024BC
:1004B000D3900003E09401900002E0940050159066
:1004C00000017464F022900003E024FFF090000229
:0504D000E034FFF02202
:10060000900002E07002A3E07048120ACE90001D34
:10061000EFF0C3948050167F01120AEC90001DE0A9
:1006200075F0C884E5F02464FEE433801DE4FF1215
:100630000AEC90001DE02480FFE434FFFE7C017D85
:100640002C120036ED2464FEE43C900002F0A3CEB0
:10065000F022900003E024FFF0900002E034FFF06D
:010660002277
:10077800900000E0B40A005043900788F8282873D6
:100788000207A60207A90207AC0207AF0207B202D6
:1007980007B50207B80207BB0207BE0207C1020B72
:1007A8007F020B8C02082802087202053A02040A2A
:1007B8000201DE02071D020470020600900005E037
:0907C800B40105E4FF120AEC2261
:1006A100410007004100080044000A000000004129
:0306B1000009003D
:0300330002059E25
:10059E00C0E0C0F0C083C082C0D075D000C000C023
:1005AE0001C002C003C004C005C006C007E5D430B8
:1005BE00E22575D4047F05120B22BF01157F0112AF
:1005CE000B22900008BF01057402F0800A7401F03E
:1005DE008005900008E4F0D007D006D005D004D0F6
:1005EE0003D002D001D000D0D0D082D083D0F0D0B2
:0205FE00E032E9
:10099D0053F1F77D037F051209327D027F011209A4
:1009AD003275D3E1D2BEE4900007F0A3F090000AB7
:1009BD001200F7000000007F05120B22900009EFD6
:0209CD00F02216
:060BCA00900007E0FF228D
:060BD000900008E0FF2286
:100B4900900007EFF0B4010A90000A1200F70000C4
:030B590000002277
:0B0B980090000A1200F700000000228D
:1008F80074FFFFFEFDFC90000AE0F8A3E0F9A3E016
:10090800FAA3E0FBC31200DA501F90000AE0FCA330
:10091800E0FDA3E0FEA3E02401FFE43EFEE43DFD8C
:0A092800E43CFC90000A1200EB22F0
:100A2500E4F5D043F840E58E54FEFFA2AF9201C233
:100A3500AFE4F58E438702000000EF4480F58EA2F7
:040A45000192AF2249
:060BD600438E80D2AF2225
:1006C0007F05120B2290001DEFF0900009E06F6093
:1006D0004B7F05120B2290001DEFF01470287F0154
:1006E000120B22EF900008B401057402F08003742D
:1006F00001F0900007E0701C04F090000A1200F76F
:1007000000000000800EE4900008F0900007E0B4C4
:0D0710000102E4F090001DE0900009F022CD
:100A8D00900008E0FF64016004EFB402137F0112CF
:100A9D000B22EF900008B401047402F0227401F0EF
:010AAD002226
:10096800900007E0B4012D900008E07027120BC436
:10097800EF70217FE07E937D047C0090000AE0F810
:10098800A3E0F9A3E0FAA3E0FBC31200DA4005E410
:05099800900007F022B1
:090BA3001206C0120A8D02096855
:0B06B40042001B0000C10041001A00C2
:100B6E005389F0438901758CFC758A18D2A9D28CF1
:010B7E002254
:03000B000207D118
:1007D100C0E0C0F0C083C082C0D075D000C000C0EE
:1007E10001C002C003C004C005C006C007758CFC6F
:1007F100758A1890001CE004F0700690001BE0045C
:10080100F0D200120BCABF01031208F8D007D006BC
:10081100D005D004D003D002D001D000D0D0D082F6
:07082100D083D0F0D0E032DB
:100B5C00120A49120AAE1209FF12099D120B6ED22B
:020B6C00AF22B6
:10038E00EF6078EF14605A147071120BCAEF14708C
:10039E001AE4FF120B49E4FF1209CFE4FF120AEC34
:1003AE00E4FF12000EE490001AF0227F01120B49B6
:1003BE00E4FF12000E7F011209CF7F01120AECE456
:1003CE0090001BF0A3F0C390001CE0943290001B31
:1003DE00E0940040F1E4FF120AEC90001A7401F070
:1003EE0022120BCABF0114120BC4EF0475F00A845B
:0C03FE00AFF012000E120B0A120B982236
:1008BC00120BCAEF64017033120BD090001DEFF0D5
:1008CC00120BBE90001EEFF06403601F90001DE041
:1008DC0024FE60070470087F02800D7F0180099060
:0C08EC00001EE0B402057F011209CF22BB
:1004D500120B5C120BCAEF14601F0470F6120A258A
:1004E500120BD6120BACEF7006120BD0EF60E47F47
:1004F5000212038E120BB280DA3000D7C20012034B
:100505000B120BACEF600612038E120BB2120BA38B
:10051500120BCABF01BD1207781201281208BC12BE
:100525000BCAEF70AEFF1209CFE4FF120AECE4FF2D
:0505350012000E809E83
:0300000002027F7A
:0C027F00787FE4F6D8FD7581200202C6ED
:10003600BC000BBE0029EF8DF084FFADF022E4CCAE
:10004600F875F008EF2FFFEE33FEEC33FCEE9DEC77
:10005600984005FCEE9DFE0FD5F0E9E4CEFD22EDBD
:10006600F8F5F0EE8420D21CFEADF075F008EF2F07
:10007600FFED33FD4007985006D5F0F222C398FDF8
:050086000FD5F0EA2295
:10008B00E88FF0A4CC8BF0A42CFCE98EF0A42CFC14
:10009B008AF0EDA42CFCEA8EF0A4CDA8F08BF0A492
:1000AB002DCC3825F0FDE98FF0A42CCD35F0FCEBF1
:1000BB008EF0A4FEA9F0EB8FF0A4CFC5F02ECD39B6
:0F00CB00FEE43CFCEAA42DCE35F0FDE43CFC2223
:1000DA00EB9FF5F0EA9E42F0E99D42F0E89C45F07C
:0100EA0022F3
:0C00EB00ECF0A3EDF0A3EEF0A3EFF02288
:1000F700A8828583F0D083D08212010E12010E12DE
:10010700010E12010EE473E493A3C583C5F0C58302
:10011700C8C582C8F0A3C583C5F0C583C8C582C852
:0101270022B5
:10028B000204D5E493A3F8E493A34003F68001F2B0
:10029B0008DFF48029E493A3F85407240CC8C33374
:1002AB00C4540F4420C8834004F456800146F6DF43
:1002BB00E4800B0102040810204080900661E47E6C
:1002CB00019360BCA3FF543F30E509541FFEE49338
:1002DB00A360010ECF54C025E060A840B8E493A3FF
:1002EB00FAE493A3F8E493A3C8C582C8CAC583CA2A
:1002FB00F0A3C8C582C8CAC583CADFE9DEE780BEE2
:0106BF00003A
:00000001FF
