:10059B0041001200420010000041000E0041000F0C
:0705AB000141001300C10033
:10000E007D02E4FF120947D288D2A8E4900012F0D4
:10001E00900010F0A3F090000EF0A304F0E4900016
:05002E0013F0C20022E6
:03000300020006F2
:03000600D20032F3
:060BC900900013E0FF2282
:060BCF00E4900013F02287
:030BFF00A200222F
:030C0200C200220B
:10030B00E4FF120B6490000EE0C394145015A3E0AD
:10031B006F600AE490000EF0A3EFF0800690000EE1
:10032B00E004F090000EE0C394144056EF70279059
:10033B000012E0700504F0E48042C3900011E094D9
:10034B00FF900010E094FF5039A3E004F07033905D
:10035B000010E004F022900012E0B40125C39000DD
:10036B0011E094DC900010E09405900013400574AC
:10037B0002F080037401F0E4900012F0900010F092
:03038B00A3F022BA
:060BD500C1C2C3C4C5C685
:10094700EFC39406502FEF900BD593FFED14600C77
:100957001460111460042403701B80118F82758347
:1009670000E4F0228F827583007481F0228F8275F4
:0609770083007401F02270
:100A8200ED14700E7401A807088002C333D8FC422B
:100A920080227401A807088002C333D8FCF4528074
:010AA2002231
:100B6400E580A807088002C313D8FC30E0037F01A6
:040B7400227F0022BA
:1005B20041001500420016000042001800004100F0
:0205C200140023
:100AC4007D017F02120947E4FD7F02120A82E4904D
:100AD4000015F0A3F0A3F0A3F0A3F0900014F0220B
:1009E400900015EFF0E4A3F0A3F0A3F0A3F0EF144C
:1009F400601004701AE4FD7F02120A82E49000146D
:100A0400F0227D017F02120A829000147401F02208
:10012800900015E014601A14602E14606A240360AD
:10013800030201DD900014E0640160030201DD8028
:1001480079900014E060030201DD7D017F02120A4C
:10015800829000147401F022900017E004F07006F9
:10016800900016E004F0C3900017E094FA9000168F
:10017800E094004060E4F0A3F0900014E070047F85
:100188000180027F00900014EFF060047D0180027E
:100198007D007F02020A82D3900019E0940090004B
:1001A80018E094004020A3E024FFF0900018E03409
:1001B800FFF0900014E0B4011CE4FD7F02120A82F3
:1001C800E4900014F0227D017F02120A829000144C
:0601D8007401F0A3F02207
:060BDB00900015E0FF226E
:100B20009000157403F09000187401F0A374F4F0B1
:080B3000E4900016F0A3F0228E
:1005C4004100000041000500420002000041000615
:0905D40000410001004100047B1C
:100AE400900004E0FFE4FCFDFE7B6D7A4E79C6784D
:0E0AF4004112008BEF2439900004F07F0022A5
:100A14007D017F03120947E4FD7F03120A82E490FB
:100A24000000F0900005F0900002F0A3F0900006A2
:060A3400F0900001F02229
:100B0200EF600E7D017F03120A829000057401F0EE
:0E0B120022E4FD7F03120A82E4900005F02227
:100A3A00EFC3940A4002E4FF900000EFF0E4900054
:100A4A0006F0900002F0A3F0900001F0EF7004FFAE
:040A5A00120B022257
:060BE100900000E0FF227D
:0D0B9C00900005E0B40105E4FF120B0222F9
:0C0BA900900005E070057F01120B022295
:1007C500900002E07002A3E07031900006E0701620
:1007D5007F01120B029000027401F0A374F4F090F3
:1007E50000067401F022E4FF120B0290000274016E
:1007F500F0A374F4F0E4900006F022900003E024E6
:0A080500FFF0900002E034FFF02243
:10080F00900002E07002A3E07031900006E07016D5
:10081F007F01120B029000027401F0A374F4F090A8
:10082F0000067401F022E4FF120B0290000274051F
:10083F00F0A374DCF0E4900006F022900003E024B3
:0A084F00FFF0900002E034FFF022F9
:1004D500900002E07002A3E0704B900006E014600B
:1004E5000C146007146026240370318010E4FF1299
:1004F5000B02900002E4F0A37464F0801F7F0112E8
:100505000B02900002E4F0A374C8F0800FE4FF1220
:100515000B029000027401F0A374F4F0900006E061
:10052500045403F022900003E024FFF0900002E061
:0405350034FFF0227D
:10040A00900002E07002A3E0704D900006E01460D4
:10041A001214601114601014600B14601E2405700D
:10042A0029800880028004E4FF80027F01120B0207
:10043A00900002E4F0A37464F0800FE4FF120B0250
:10044A009000027402F0A374BCF0900006E00475F8
:10045A00F00684E5F0F022900003E024FFF090001B
:06046A0002E034FFF02265
:1001DE00900002E07002A3E060030202709000063D
:1001EE00E014602114602E14603B146049146056B4
:1001FE00240570617F01120B029000027401F0A3BE
:10020E00742CF08050E4FF120B02900002E4F0A375
:10021E0074C8F080407F01120B02900002E4F0A33C
:10022E007464F08030E4FF120B029000027401F04F
:10023E00A37490F0801F7F01120B02900002E4F075
:10024E00A37496F0800FE4FF120B0290000274026A
:10025E00F0A3748AF0900006E00475F00684E5F0D1
:10026E00F022900003E024FFF0900002E034FFF053
:01027E00225D
:1006BA00900002E07002A3E07042900001E0C3944F
:1006CA0064500DE02402F0E0D3946440037464F0B3
:1006DA007F01120B02900002E4F0A37432F0900042
:1006EA0001E0C394644023D3900003E09401900096
:1006FA0002E094005014E4900001F022900003E01C
:0B070A0024FFF0900002E034FFF0221A
:10047000900002E07002A3E0704C900001E0D39481
:1004800000400CE024FEF0E0D394644002E4F090DD
:100490000001E0D3940040047F0180027F00120B32
:1004A00002900002E4F0A37432F0900001E07024A6
:1004B000D3900003E09401900002E0940050159066
:1004C00000017464F022900003E024FFF090000229
:0504D000E034FFF02202
:1005FC00900002E07002A3E07048120AE490001C24
:10060C00EFF0C3948050167F01120B0290001CE097
:10061C0075F0C884E5F02464FEE433801DE4FF1219
:10062C000B0290001CE02480FFE434FFFE7C017D73
:10063C002C120036ED2464FEE43C900002F0A3CEB4
:10064C00F022900003E024FFF0900002E034FFF071
:01065C00227B
:10071500900000E0B40A005043900725F82828739C
:1007250002074302074602074902074C02074F0228
:10073500075202075502075802075B02075E020BC4
:100745009C020BA90207C502080F0204D502040A80
:100755000201DE0206BA0204700205FC900005E003
:09076500B40105E4FF120B0222AD
:1005DD00410007004100080044000A0000000041EE
:0305ED0000090002
:030033000205398A
:10053900C0E0C0F0C083C082C0D075D000C000C088
:1005490001C002C003C004C005C006C007E5D4301D
:10055900E22575D4047F05120B64BF01157F0112D2
:100569000B64900008BF01057402F0800A7401F061
:100579008005900008E4F0D007D006D005D004D05B
:1005890003D002D001D000D0D0D082D083D0F0D017
:02059900E0324E
:1009B20053F1F77D037F051209477D027F0112097A
:1009C2004775D3E1D2BEE4900007F0A3F090000A8D
:1009D2001200F7000000007F05120B64900009EF7F
:0209E200F02201
:060BE700900007E0FF2270
:060BED00900008E0FF2269
:100B7800900007EFF0B4010A90000A1200F7000095
:030B880000002248
:0B0BB50090000A1200F7000000002270
:10090D0074FFFFFEFDFC90000AE0F8A3E0F9A3E000
:10091D00FAA3E0FBC31200DA501F90000AE0FCA31B
:10092D00E0FDA3E0FEA3E02401FFE43EFEE43DFD77
:0A093D00E43CFC90000A1200EB22DB
:100A5E00E4F5D043F840E58E54FEFFA2AF9202C2F9
:100A6E00AFE4F58E438702000000EF4480F58EA2BE
:040A7E000292AF220F
:060BF300438E80D2AF2208
:10065D007F05120B6490001CEFF0900009E06F60B5
:10066D004B7F05120B6490001CEFF01470287F0176
:10067D00120B64EF900008B401057402F08003744E
:10068D0001F0900007E0701C04F090000A1200F7D2
:10069D0000000000800EE4900008F0900007E0B428
:0D06AD000102E4F090001CE0900009F02232
:100AA300900008E0FF64016004EFB402137F0112B9
:100AB3000B64EF900008B401047402F0227401F097
:010AC3002210
:10097D00900007E0B4012D900008E07027120BE104
:10098D00EF70217FE07E937D047C0090000AE0F8FB
:10099D00A3E0F9A3E0FAA3E0FBC31200DA4005E4FB
:0509AD00900007F0229C
:090BC00012065D120AA302097D70
:0705F00042001A0000C101E6
:100B8B005389F0438901758CFC758A18D2A9D28CD4
:010B9B002237
:03000B0002076E7B
:10076E00C0E0C0F0C083C082C0D075D000C000C051
:10077E0001C002C003C004C005C006C007758CFCD2
:10078E00758A1890001BE004F0700690001AE004C1
:10079E00F0D201120BE7BF010312090DD007D006EC
:1007AE00D005D004D003D002D001D000D0D0D0825A
:0707BE00D083D0F0D0E0323F
:100B4F0012000E120AC4120A141209B2120B8B12DF
:050B5F000BF9D2AF22EA
:100B3800120B4F120BE7EF1460080470F6120859F5
:070B480080F11208D280ECDD
:0405F70041001E00A1
:060BF900E490001EF02252
:10085900120A5E120BF3120BEDEF600B7F0212030B
:100869008E120BCF020C02120BFF5020120C021237
:100879000BE7EF70173001F7C20112030B120BC916
:0D088900EF60ECB4020312038E120BCF22BD
:1008D200300137C20112030B120BC9EF600612037B
:1008E2008E120BCF120BC0120BE7BF011D120715A0
:1008F200120128120896120BE7EF700EFF1209E49C
:0B090200E4FF120B02E4FF120A3A228D
:10038E00EF6078EF14605A147071120BE7EF14706F
:10039E001AE4FF120B78E4FF1209E4E4FF120B02D9
:1003AE00E4FF120A3AE490001EF0227F01120B784D
:1003BE00E4FF120A3A7F011209E47F01120B02E4F4
:1003CE0090001AF0A3F0C390001BE0943290001A34
:1003DE00E0940040F1E4FF120B0290001E7401F055
:1003EE0022120BE7BF0114120BE1EF0475F00A8421
:0C03FE00AFF0120A3A120B20120BB522CD
:10089600120BE7EF64017033120BED90001CEFF0C2
:1008A600120BDB90001DEFF06403601F90001CE04C
:1008B60024FE60070470087F02800D7F0180099086
:0C08C600001DE0B402057F011209E422CD
:0300000002027F7A
:0C027F00787FE4F6D8FD7581200202C6ED
:10003600BC000BBE0029EF8DF084FFADF022E4CCAE
:10004600F875F008EF2FFFEE33FEEC33FCEE9DEC77
:10005600984005FCEE9DFE0FD5F0E9E4CEFD22EDBD
:10006600F8F5F0EE8420D21CFEADF075F008EF2F07
:10007600FFED33FD4007985006D5F0F222C398FDF8
:050086000FD5F0EA2295
:10008B00E88FF0A4CC8BF0A42CFCE98EF0A42CFC14
:10009B008AF0EDA42CFCEA8EF0A4CDA8F08BF0A492
:1000AB002DCC3825F0FDE98FF0A42CCD35F0FCEBF1
:1000BB008EF0A4FEA9F0EB8FF0A4CFC5F02ECD39B6
:0F00CB00FEE43CFCEAA42DCE35F0FDE43CFC2223
:1000DA00EB9FF5F0EA9E42F0E99D42F0E89C45F07C
:0100EA0022F3
:0C00EB00ECF0A3EDF0A3EEF0A3EFF02288
:1000F700A8828583F0D083D08212010E12010E12DE
:10010700010E12010EE473E493A3C583C5F0C58302
:10011700C8C582C8F0A3C583C5F0C583C8C582C852
:0101270022B5
:10028B00020B38E493A3F8E493A34003F68001F246
:10029B0008DFF48029E493A3F85407240CC8C33374
:1002AB00C4540F4420C8834004F456800146F6DF43
:1002BB00E4800B010204081020408090059BE47E33
:1002CB00019360BCA3FF543F30E509541FFEE49338
:1002DB00A360010ECF54C025E060A840B8E493A3FF
:1002EB00FAE493A3F8E493A3C8C582C8CAC583CA2A
:1002FB00F0A3C8C582C8CAC583CADFE9DEE780BEE2
:0105FB0000FF
:00000001FF
