:1005AB0041001200420010000041000E0041000FFC
:0705BB000141001300C10023
:10000E007D02E4FF120957D288D2A8E4900012F0C4
:10001E00900010F0A3F090000EF0A304F0E4900016
:05002E0013F0C20022E6
:03000300020006F2
:03000600D20032F3
:060BD900900013E0FF2272
:060BDF00E4900013F02277
:030C0F00A200221E
:030C1200C20022FB
:10039700E4FF120B7490000EE0C394145015A3E011
:1003A7006F600AE490000EF0A3EFF0800690000E55
:1003B700E004F090000EE0C394144056EF702790CD
:1003C7000012E0700504F0E48042C3900011E0944D
:1003D700FF900010E094FF5039A3E004F0703390D1
:1003E7000010E004F022900012E0B40125C3900051
:1003F70011E094DC900010E0940590001340057420
:1004070002F080037401F0E4900012F0900010F005
:03041700A3F0222D
:060BE500C1C2C3C4C5C675
:10095700EFC39406502FEF900BE593FFED14600C57
:100967001460111460042403701B80118F82758337
:1009770000E4F0228F827583007481F0228F8275E4
:0609870083007401F02260
:100A9200ED14700E7401A807088002C333D8FC421B
:100AA20080227401A807088002C333D8FCF4528064
:010AB2002221
:100B7400E580A807088002C313D8FC30E0037F0196
:040B8400227F0022AA
:1005C20041001500420016000042001800004100E0
:0205D200140013
:100AD4007D017F02120957E4FD7F02120A92E4901D
:100AE4000015F0A3F0A3F0A3F0A3F0900014F022FB
:1009F400900015EFF0E4A3F0A3F0A3F0A3F0EF143C
:100A0400601004701AE4FD7F02120A92E49000144C
:100A1400F0227D017F02120A929000147401F022E8
:10012800900015E014601A14602E14606A240360AD
:10013800030201DD900014E0640160030201DD8028
:1001480079900014E060030201DD7D017F02120A4C
:10015800929000147401F022900017E004F07006E9
:10016800900016E004F0C3900017E094FA9000168F
:10017800E094004060E4F0A3F0900014E070047F85
:100188000180027F00900014EFF060047D0180027E
:100198007D007F02020A92D3900019E0940090003B
:1001A80018E094004020A3E024FFF0900018E03409
:1001B800FFF0900014E0B4011CE4FD7F02120A92E3
:1001C800E4900014F0227D017F02120A929000143C
:0601D8007401F0A3F02207
:060BEB00900015E0FF225E
:100B30009000157403F09000187401F0A374F4F0A1
:080B4000E4900016F0A3F0227E
:1005D4004100000041000500420002000041000605
:0905E40000410001004100047B0C
:100AF400900004E0FFE4FCFDFE7B6D7A4E79C6783D
:0E0B04004112008BEF2439900004F07F002294
:100A24007D017F03120957E4FD7F03120A92E490CB
:100A34000000F0900005F0900002F0A3F090000692
:060A4400F0900001F02219
:100B1200EF600E7D017F03120A929000057401F0CE
:0E0B220022E4FD7F03120A92E4900005F02207
:100A4A00EFC3940A4002E4FF900000EFF0E4900044
:100A5A0006F0900002F0A3F0900001F0EF7004FF9E
:040A6A00120B122237
:060BF100900000E0FF226D
:0D0BAC00900005E0B40105E4FF120B1222D9
:0C0BB900900005E070057F01120B122275
:1007D500900002E07002A3E07031900006E0701610
:1007E5007F01120B129000027401F0A374F4F090D3
:1007F50000067401F022E4FF120B1290000274014E
:10080500F0A374F4F0E4900006F022900003E024D5
:0A081500FFF0900002E034FFF02233
:10081F00900002E07002A3E07031900006E07016C5
:10082F007F01120B129000027401F0A374F4F09088
:10083F0000067401F022E4FF120B129000027405FF
:10084F00F0A374DCF0E4900006F022900003E024A3
:0A085F00FFF0900002E034FFF022E9
:1004E500900002E07002A3E0704B900006E01460FB
:1004F5000C146007146026240370318010E4FF1289
:100505000B12900002E4F0A37464F0801F7F0112C7
:100515000B12900002E4F0A374C8F0800FE4FF1200
:100525000B129000027401F0A374F4F0900006E041
:10053500045403F022900003E024FFF0900002E051
:0405450034FFF0226D
:10041A00900002E07002A3E0704D900006E01460C4
:10042A001214601114601014600B14601E240570FD
:10043A0029800880028004E4FF80027F01120B12E7
:10044A00900002E4F0A37464F0800FE4FF120B1230
:10045A009000027402F0A374BCF0900006E00475E8
:10046A00F00684E5F0F022900003E024FFF090000B
:06047A0002E034FFF02255
:1001DE00900002E07002A3E060030202709000063D
:1001EE00E014602114602E14603B146049146056B4
:1001FE00240570617F01120B129000027401F0A3AE
:10020E00742CF08050E4FF120B12900002E4F0A365
:10021E0074C8F080407F01120B12900002E4F0A32C
:10022E007464F08030E4FF120B129000027401F03F
:10023E00A37490F0801F7F01120B12900002E4F065
:10024E00A37496F0800FE4FF120B1290000274025A
:10025E00F0A3748AF0900006E00475F00684E5F0D1
:10026E00F022900003E024FFF0900002E034FFF053
:01027E00225D
:1006CA00900002E07002A3E07042900001E0C3943F
:1006DA0064500DE02402F0E0D3946440037464F0A3
:1006EA007F01120B12900002E4F0A37432F0900022
:1006FA0001E0C394644023D3900003E09401900086
:10070A0002E094005014E4900001F022900003E00B
:0B071A0024FFF0900002E034FFF0220A
:10048000900002E07002A3E0704C900001E0D39471
:1004900000400CE024FEF0E0D394644002E4F090CD
:1004A0000001E0D3940040047F0180027F00120B22
:1004B00012900002E4F0A37432F0900001E0702486
:1004C000D3900003E09401900002E0940050159056
:1004D00000017464F022900003E024FFF090000219
:0504E000E034FFF022F2
:10060C00900002E07002A3E07048120AF490001C03
:10061C00EFF0C3948050167F01120B1290001CE077
:10062C0075F0C884E5F02464FEE433801DE4FF1209
:10063C000B1290001CE02480FFE434FFFE7C017D53
:10064C002C120036ED2464FEE43C900002F0A3CEA4
:10065C00F022900003E024FFF0900002E034FFF061
:01066C00226B
:10072500900000E0B40A005043900735F82828737C
:1007350002075302075602075902075C02075F02C8
:10074500076202076502076802076B02076E020B64
:10075500AC020BB90207D502081F0204E502041A10
:100765000201DE0206CA02048002060C900005E0C2
:09077500B40105E4FF120B12228D
:1005ED00410007004100080044000A0000000041DE
:0305FD00000900F2
:030033000205497A
:10054900C0E0C0F0C083C082C0D075D000C000C078
:1005590001C002C003C004C005C006C007E5D4300D
:10056900E22575D4047F05120B74BF01157F0112B2
:100579000B74900008BF01057402F0800A7401F041
:100589008005900008E4F0D007D006D005D004D04B
:1005990003D002D001D000D0D0D082D083D0F0D007
:0205A900E0323E
:1009C20053F1F77D037F051209577D027F0112095A
:1009D2005775D3E1D2BEE4900007F0A3F090000A6D
:1009E2001200F7000000007F05120B74900009EF5F
:0209F200F022F1
:060BF700900007E0FF2260
:060BFD00900008E0FF2259
:100B8800900007EFF0B4010A90000A1200F7000085
:030B980000002238
:0B0BC50090000A1200F7000000002260
:10091D0074FFFFFEFDFC90000AE0F8A3E0F9A3E0F0
:10092D00FAA3E0FBC31200DA501F90000AE0FCA30B
:10093D00E0FDA3E0FEA3E02401FFE43EFEE43DFD67
:0A094D00E43CFC90000A1200EB22CB
:100A6E00E4F5D043F840E58E54FEFFA2AF9202C2E9
:100A7E00AFE4F58E438702000000EF4480F58EA2AE
:040A8E000292AF22FF
:060C0300438E80D2AF22F7
:10066D007F05120B7490001CEFF0900009E06F6095
:10067D004B7F05120B7490001CEFF01470287F0156
:10068D00120B74EF900008B401057402F08003742E
:10069D0001F0900007E0701C04F090000A1200F7C2
:1006AD0000000000800EE4900008F0900007E0B418
:0D06BD000102E4F090001CE0900009F02222
:100AB300900008E0FF64016004EFB402137F0112A9
:100AC3000B74EF900008B401047402F0227401F077
:010AD3002200
:10098D00900007E0B4012D900008E07027120BF1E4
:10099D00EF70217FE07E937D047C0090000AE0F8EB
:1009AD00A3E0F9A3E0FAA3E0FBC31200DA4005E4EB
:0509BD00900007F0228C
:090BD00012066D120AB302098D30
:0706000042001A0000C101D5
:100B9B005389F0438901758CFC758A18D2A9D28CC4
:010BAB002227
:03000B0002077E6B
:10077E00C0E0C0F0C083C082C0D075D000C000C041
:10078E0001C002C003C004C005C006C007758CFCC2
:10079E00758A1890001BE004F0700690001AE004B1
:1007AE00F0D201120BF7BF010312091DD007D006BC
:1007BE00D005D004D003D002D001D000D0D0D0824A
:0707CE00D083D0F0D0E0322F
:100B5F0012000E120AD4120A241209C2120B9B128F
:050B6F000C09D2AF22C9
:100B4800120B5F120BF7EF1460080470F6120869B5
:070B580080F11208E280ECBD
:0406070041001E0090
:060C0900E490001EF02241
:10086900120A6E120C03120BFDEF600B7F021202CB
:100879007F120BDF020C12120C0F5020120C1212F5
:100889000BF7EF70173001F7C201120397120BD95A
:0D089900EF60ECB4020312027F120BDF22AD
:1008E200300137C201120397120BD9EF60061202D0
:1008F2007F120BDF120BD0120BF7BF011D1207255F
:100902001201281208A6120BF7EF700EFF1209F45B
:0B091200E4FF120B12E4FF120A4A225D
:10027F0090001CEFF0700302030A120BFDEF707B6E
:10028F0090001CE014605A147071120BF7EF147089
:10029F001AE4FF120B88E4FF1209F4E4FF120B12A9
:1002AF00E4FF120A4AE490001EF0227F01120B882D
:1002BF00E4FF120A4A7F011209F47F01120B12E4C4
:1002CF0090001AF0A3F0C390001BE0943290001A34
:1002DF00E0940040F1E4FF120B1290001E7401F045
:1002EF0022120BF7BF0114120BF1EF0475F00A8401
:0C02FF00AFF0120A4A120B30120BC5229D
:1008A600120BF7EF64017033120BFD90001CEFF092
:1008B600120BEB90001DEFF06403601F90001CE02C
:1008C60024FE60070470087F02800D7F0180099076
:0C08D600001DE0B402057F011209F422AD
:0300000002030BED
:0C030B00787FE4F6D8FD758120020352D3
:10003600BC000BBE0029EF8DF084FFADF022E4CCAE
:10004600F875F008EF2FFFEE33FEEC33FCEE9DEC77
:10005600984005FCEE9DFE0FD5F0E9E4CEFD22EDBD
:10006600F8F5F0EE8420D21CFEADF075F008EF2F07
:10007600FFED33FD4007985006D5F0F222C398FDF8
:050086000FD5F0EA2295
:10008B00E88FF0A4CC8BF0A42CFCE98EF0A42CFC14
:10009B008AF0EDA42CFCEA8EF0A4CDA8F08BF0A492
:1000AB002DCC3825F0FDE98FF0A42CCD35F0FCEBF1
:1000BB008EF0A4FEA9F0EB8FF0A4CFC5F02ECD39B6
:0F00CB00FEE43CFCEAA42DCE35F0FDE43CFC2223
:1000DA00EB9FF5F0EA9E42F0E99D42F0E89C45F07C
:0100EA0022F3
:0C00EB00ECF0A3EDF0A3EEF0A3EFF02288
:1000F700A8828583F0D083D08212010E12010E12DE
:10010700010E12010EE473E493A3C583C5F0C58302
:10011700C8C582C8F0A3C583C5F0C583C8C582C852
:0101270022B5
:10031700020B48E493A3F8E493A34003F68001F2A9
:1003270008DFF48029E493A3F85407240CC8C333E7
:10033700C4540F4420C8834004F456800146F6DFB6
:10034700E4800B01020408102040809005ABE47E96
:10035700019360BCA3FF543F30E509541FFEE493AB
:10036700A360010ECF54C025E060A840B8E493A372
:10037700FAE493A3F8E493A3C8C582C8CAC583CA9D
:10038700F0A3C8C582C8CAC583CADFE9DEE780BE55
:01060B0000EE
:00000001FF
